{
  "_format": "hh-sol-artifact-1",
  "contractName": "Donation",
  "sourceName": "contracts/Donation.sol",
  "abi": [
    {
      "inputs": [],
      "stateMutability": "nonpayable",
      "type": "constructor"
    },
    {
      "anonymous": false,
      "inputs": [
        {
          "indexed": true,
          "internalType": "address",
          "name": "donor",
          "type": "address"
        },
        {
          "indexed": false,
          "internalType": "uint256",
          "name": "amount",
          "type": "uint256"
        }
      ],
      "name": "DonationReceived",
      "type": "event"
    },
    {
      "inputs": [],
      "name": "donate",
      "outputs": [],
      "stateMutability": "payable",
      "type": "function"
    },
    {
      "inputs": [],
      "name": "donationCount",
      "outputs": [
        {
          "internalType": "uint256",
          "name": "",
          "type": "uint256"
        }
      ],
      "stateMutability": "view",
      "type": "function"
    },
    {
      "inputs": [],
      "name": "getBalance",
      "outputs": [
        {
          "internalType": "uint256",
          "name": "",
          "type": "uint256"
        }
      ],
      "stateMutability": "view",
      "type": "function"
    },
    {
      "inputs": [],
      "name": "owner",
      "outputs": [
        {
          "internalType": "address",
          "name": "",
          "type": "address"
        }
      ],
      "stateMutability": "view",
      "type": "function"
    },
    {
      "inputs": [],
      "name": "totalDonations",
      "outputs": [
        {
          "internalType": "uint256",
          "name": "",
          "type": "uint256"
        }
      ],
      "stateMutability": "view",
      "type": "function"
    },
    {
      "inputs": [],
      "name": "withdraw",
      "outputs": [],
      "stateMutability": "nonpayable",
      "type": "function"
    }
  ],
  "bytecode": "0x608060405234801561001057600080fd5b50336000806101000a81548173ffffffffffffffffffffffffffffffffffffffff021916908373ffffffffffffffffffffffffffffffffffffffff160217905550610564806100606000396000f3fe6080604052600436106100555760003560e01c806312065fe01461005a5780632abfab4d146100855780633ccfd60b146100b05780638da5cb5b146100c7578063de2ed893146100f2578063ed88c68e1461011d575b600080fd5b34801561006657600080fd5b5061006f610127565b60405161007c9190610441565b60405180910390f35b34801561009157600080fd5b5061009a61012f565b6040516100a79190610441565b60405180910390f35b3480156100bc57600080fd5b506100c5610135565b005b3480156100d357600080fd5b506100dc61022c565b6040516100e991906103e6565b60405180910390f35b3480156100fe57600080fd5b50610107610250565b6040516101149190610441565b60405180910390f35b610125610256565b005b600047905090565b60025481565b60008054906101000a900473ffffffffffffffffffffffffffffffffffffffff1673ffffffffffffffffffffffffffffffffffffffff163373ffffffffffffffffffffffffffffffffffffffff16146101c3576040517f08c379a00000000000000000000000000000000000000000000000000000000081526004016101ba90610421565b60405180910390fd5b60008054906101000a900473ffffffffffffffffffffffffffffffffffffffff1673ffffffffffffffffffffffffffffffffffffffff166108fc479081150290604051600060405180830381858888f19350505050158015610229573d6000803e3d6000fd5b50565b60008054906101000a900473ffffffffffffffffffffffffffffffffffffffff1681565b60015481565b66038d7ea4c68000341461029f576040517f08c379a000000000000000000000000000000000000000000000000000000000815260040161029690610401565b60405180910390fd5b34600160008282546102b1919061046d565b925050819055506001600260008282546102cb919061046d565b925050819055503373ffffffffffffffffffffffffffffffffffffffff167f264f630d9efa0d07053a31163641d9fcc0adafc9d9e76f1c37c2ce3a558d2c52346040516103189190610441565b60405180910390a2565b61032b816104c3565b82525050565b600061033e601f8361045c565b91507f596f75206d7573742073656e642065786163746c7920302e30303120455448006000830152602082019050919050565b600061037e60268361045c565b91507f4f6e6c7920746865206f776e65722063616e20706572666f726d20746869732060008301527f616374696f6e00000000000000000000000000000000000000000000000000006020830152604082019050919050565b6103e0816104f5565b82525050565b60006020820190506103fb6000830184610322565b92915050565b6000602082019050818103600083015261041a81610331565b9050919050565b6000602082019050818103600083015261043a81610371565b9050919050565b600060208201905061045660008301846103d7565b92915050565b600082825260208201905092915050565b6000610478826104f5565b9150610483836104f5565b9250827fffffffffffffffffffffffffffffffffffffffffffffffffffffffffffffffff038211156104b8576104b76104ff565b5b828201905092915050565b60006104ce826104d5565b9050919050565b600073ffffffffffffffffffffffffffffffffffffffff82169050919050565b6000819050919050565b7f4e487b7100000000000000000000000000000000000000000000000000000000600052601160045260246000fdfea26469706673582212201aeda5c3ba0b372e247956a33c6dc0b4b326ad6de3f2c1bec7f4606bad7add0e64736f6c63430008000033",
  "linkReferences": {},
  "deployedLinkReferences": {}
}