{
  "_format": "hh-sol-artifact-1",
  "contractName": "Rewards",
  "sourceName": "contracts/Rewards.sol",
  "abi": [
    {
      "inputs": [
        {
          "internalType": "address",
          "name": "userRegistryAddress",
          "type": "address"
        }
      ],
      "stateMutability": "nonpayable",
      "type": "constructor"
    },
    {
      "anonymous": false,
      "inputs": [
        {
          "indexed": false,
          "internalType": "address",
          "name": "user",
          "type": "address"
        },
        {
          "indexed": false,
          "internalType": "string",
          "name": "reward",
          "type": "string"
        }
      ],
      "name": "RewardClaimed",
      "type": "event"
    },
    {
      "inputs": [],
      "name": "claimReward",
      "outputs": [],
      "stateMutability": "nonpayable",
      "type": "function"
    },
    {
      "inputs": [],
      "name": "userRegistry",
      "outputs": [
        {
          "internalType": "contract UserRegistry",
          "name": "",
          "type": "address"
        }
      ],
      "stateMutability": "view",
      "type": "function"
    }
  ],
  "bytecode": "0x608060405234801561001057600080fd5b506040516106603803806106608339818101604052810190610032919061008d565b806000806101000a81548173ffffffffffffffffffffffffffffffffffffffff021916908373ffffffffffffffffffffffffffffffffffffffff160217905550506100ff565b600081519050610087816100e8565b92915050565b60006020828403121561009f57600080fd5b60006100ad84828501610078565b91505092915050565b60006100c1826100c8565b9050919050565b600073ffffffffffffffffffffffffffffffffffffffff82169050919050565b6100f1816100b6565b81146100fc57600080fd5b50565b6105528061010e6000396000f3fe608060405234801561001057600080fd5b50600436106100365760003560e01c80635c7460d61461003b578063b88a802f14610059575b600080fd5b610043610063565b6040516100509190610396565b60405180910390f35b610061610087565b005b60008054906101000a900473ffffffffffffffffffffffffffffffffffffffff1681565b60008060009054906101000a900473ffffffffffffffffffffffffffffffffffffffff1673ffffffffffffffffffffffffffffffffffffffff16636f77926b336040518263ffffffff1660e01b81526004016100e3919061034d565b60006040518083038186803b1580156100fb57600080fd5b505afa15801561010f573d6000803e3d6000fd5b505050506040513d6000823e3d601f19601f820116820180604052508101906101389190610235565b9150506000811161017e576040517f08c379a0000000000000000000000000000000000000000000000000000000008152600401610175906103b1565b60405180910390fd5b7f6734e108c2a3c91ae94a70d29d61db4cc7cf091f37f75e234f1002481b5d8059336040516101ad9190610368565b60405180910390a150565b60006101cb6101c684610402565b6103d1565b9050828152602081018484840111156101e357600080fd5b6101ee8482856104a3565b509392505050565b600082601f83011261020757600080fd5b81516102178482602086016101b8565b91505092915050565b60008151905061022f81610505565b92915050565b6000806040838503121561024857600080fd5b600083015167ffffffffffffffff81111561026257600080fd5b61026e858286016101f6565b925050602061027f85828601610220565b9150509250929050565b61029281610443565b82525050565b6102a18161047f565b82525050565b60006102b4601183610432565b91507f4e6f20646f6e6174696f6e73206d6164650000000000000000000000000000006000830152602082019050919050565b60006102f4602483610432565b91507f596f75206861766520726563656976656420612048656c6c646976657220426160008301527f64676521000000000000000000000000000000000000000000000000000000006020830152604082019050919050565b60006020820190506103626000830184610289565b92915050565b600060408201905061037d6000830184610289565b818103602083015261038e816102e7565b905092915050565b60006020820190506103ab6000830184610298565b92915050565b600060208201905081810360008301526103ca816102a7565b9050919050565b6000604051905081810181811067ffffffffffffffff821117156103f8576103f76104d6565b5b8060405250919050565b600067ffffffffffffffff82111561041d5761041c6104d6565b5b601f19601f8301169050602081019050919050565b600082825260208201905092915050565b600061044e82610455565b9050919050565b600073ffffffffffffffffffffffffffffffffffffffff82169050919050565b6000819050919050565b600061048a82610491565b9050919050565b600061049c82610455565b9050919050565b60005b838110156104c15780820151818401526020810190506104a6565b838111156104d0576000848401525b50505050565b7f4e487b7100000000000000000000000000000000000000000000000000000000600052604160045260246000fd5b61050e81610475565b811461051957600080fd5b5056fea264697066735822122001a5d0a44bf1dde51a1a5ec1622c2bd95277e4e4bb8e983545ee7ab91298e7df64736f6c63430008000033",
  "linkReferences": {},
  "deployedLinkReferences": {}
}