{
  "_format": "hh-sol-artifact-1",
  "contractName": "UserRegistry",
  "sourceName": "contracts/UserRegistry.sol",
  "abi": [
    {
      "inputs": [
        {
          "internalType": "address",
          "name": "donationContractAddress",
          "type": "address"
        }
      ],
      "stateMutability": "nonpayable",
      "type": "constructor"
    },
    {
      "anonymous": false,
      "inputs": [
        {
          "indexed": false,
          "internalType": "address",
          "name": "user",
          "type": "address"
        },
        {
          "indexed": false,
          "internalType": "string",
          "name": "name",
          "type": "string"
        }
      ],
      "name": "UserRegistered",
      "type": "event"
    },
    {
      "inputs": [],
      "name": "donationContract",
      "outputs": [
        {
          "internalType": "contract Donation",
          "name": "",
          "type": "address"
        }
      ],
      "stateMutability": "view",
      "type": "function"
    },
    {
      "inputs": [
        {
          "internalType": "address",
          "name": "userAddress",
          "type": "address"
        }
      ],
      "name": "getUser",
      "outputs": [
        {
          "internalType": "string",
          "name": "",
          "type": "string"
        },
        {
          "internalType": "uint256",
          "name": "",
          "type": "uint256"
        }
      ],
      "stateMutability": "view",
      "type": "function"
    },
    {
      "inputs": [
        {
          "internalType": "address",
          "name": "donor",
          "type": "address"
        }
      ],
      "name": "recordDonation",
      "outputs": [],
      "stateMutability": "nonpayable",
      "type": "function"
    },
    {
      "inputs": [
        {
          "internalType": "string",
          "name": "name",
          "type": "string"
        }
      ],
      "name": "register",
      "outputs": [],
      "stateMutability": "nonpayable",
      "type": "function"
    },
    {
      "inputs": [
        {
          "internalType": "address",
          "name": "",
          "type": "address"
        }
      ],
      "name": "users",
      "outputs": [
        {
          "internalType": "string",
          "name": "name",
          "type": "string"
        },
        {
          "internalType": "uint256",
          "name": "donationCount",
          "type": "uint256"
        }
      ],
      "stateMutability": "view",
      "type": "function"
    }
  ],
  "bytecode": "0x608060405234801561001057600080fd5b50604051610cfd380380610cfd8339818101604052810190610032919061008d565b806000806101000a81548173ffffffffffffffffffffffffffffffffffffffff021916908373ffffffffffffffffffffffffffffffffffffffff160217905550506100ff565b600081519050610087816100e8565b92915050565b60006020828403121561009f57600080fd5b60006100ad84828501610078565b91505092915050565b60006100c1826100c8565b9050919050565b600073ffffffffffffffffffffffffffffffffffffffff82169050919050565b6100f1816100b6565b81146100fc57600080fd5b50565b610bef8061010e6000396000f3fe608060405234801561001057600080fd5b50600436106100575760003560e01c80636f77926b1461005c578063717fb0fb1461008d57806375624cb9146100a9578063a87430ba146100c7578063f2c298be146100f8575b600080fd5b610076600480360381019061007191906106cc565b610114565b6040516100849291906108cd565b60405180910390f35b6100a760048036038101906100a291906106cc565b610215565b005b6100b1610390565b6040516100be91906108b2565b60405180910390f35b6100e160048036038101906100dc91906106cc565b6103b4565b6040516100ef9291906108cd565b60405180910390f35b610112600480360381019061010d91906106f5565b610460565b005b6060600080600160008573ffffffffffffffffffffffffffffffffffffffff1673ffffffffffffffffffffffffffffffffffffffff16815260200190815260200160002060405180604001604052908160008201805461017390610ad2565b80601f016020809104026020016040519081016040528092919081815260200182805461019f90610ad2565b80156101ec5780601f106101c1576101008083540402835291602001916101ec565b820191906000526020600020905b8154815290600101906020018083116101cf57829003601f168201915b505050505081526020016001820154815250509050806000015181602001519250925050915091565b60008054906101000a900473ffffffffffffffffffffffffffffffffffffffff1673ffffffffffffffffffffffffffffffffffffffff163373ffffffffffffffffffffffffffffffffffffffff16146102a3576040517f08c379a000000000000000000000000000000000000000000000000000000000815260040161029a9061093d565b60405180910390fd5b6000600160008373ffffffffffffffffffffffffffffffffffffffff1673ffffffffffffffffffffffffffffffffffffffff16815260200190815260200160002060000180546102f290610ad2565b905011610334576040517f08c379a000000000000000000000000000000000000000000000000000000000815260040161032b906108fd565b60405180910390fd5b60018060008373ffffffffffffffffffffffffffffffffffffffff1673ffffffffffffffffffffffffffffffffffffffff168152602001908152602001600020600101600082825461038691906109da565b9250508190555050565b60008054906101000a900473ffffffffffffffffffffffffffffffffffffffff1681565b60016020528060005260406000206000915090508060000180546103d790610ad2565b80601f016020809104026020016040519081016040528092919081815260200182805461040390610ad2565b80156104505780601f1061042557610100808354040283529160200191610450565b820191906000526020600020905b81548152906001019060200180831161043357829003601f168201915b5050505050908060010154905082565b6000600160003373ffffffffffffffffffffffffffffffffffffffff1673ffffffffffffffffffffffffffffffffffffffff16815260200190815260200160002060000180546104af90610ad2565b9050146104f1576040517f08c379a00000000000000000000000000000000000000000000000000000000081526004016104e89061091d565b60405180910390fd5b60405180604001604052808281526020016000815250600160003373ffffffffffffffffffffffffffffffffffffffff1673ffffffffffffffffffffffffffffffffffffffff16815260200190815260200160002060008201518160000190805190602001906105629291906105ac565b50602082015181600101559050507f48cac28ad4dc618e15f4c2dd5e97751182f166de97b25618318b2112aa951a2f33826040516105a1929190610882565b60405180910390a150565b8280546105b890610ad2565b90600052602060002090601f0160209004810192826105da5760008555610621565b82601f106105f357805160ff1916838001178555610621565b82800160010185558215610621579182015b82811115610620578251825591602001919060010190610605565b5b50905061062e9190610632565b5090565b5b8082111561064b576000816000905550600101610633565b5090565b600061066261065d8461098e565b61095d565b90508281526020810184848401111561067a57600080fd5b610685848285610a90565b509392505050565b60008135905061069c81610ba2565b92915050565b600082601f8301126106b357600080fd5b81356106c384826020860161064f565b91505092915050565b6000602082840312156106de57600080fd5b60006106ec8482850161068d565b91505092915050565b60006020828403121561070757600080fd5b600082013567ffffffffffffffff81111561072157600080fd5b61072d848285016106a2565b91505092915050565b61073f81610a30565b82525050565b61074e81610a6c565b82525050565b600061075f826109be565b61076981856109c9565b9350610779818560208601610a9f565b61078281610b91565b840191505092915050565b600061079a6013836109c9565b91507f55736572206e6f742072656769737465726564000000000000000000000000006000830152602082019050919050565b60006107da6017836109c9565b91507f5573657220616c726561647920726567697374657265640000000000000000006000830152602082019050919050565b600061081a6031836109c9565b91507f4f6e6c792074686520646f6e6174696f6e20636f6e74726163742063616e206360008301527f616c6c20746869732066756e6374696f6e0000000000000000000000000000006020830152604082019050919050565b61087c81610a62565b82525050565b60006040820190506108976000830185610736565b81810360208301526108a98184610754565b90509392505050565b60006020820190506108c76000830184610745565b92915050565b600060408201905081810360008301526108e78185610754565b90506108f66020830184610873565b9392505050565b600060208201905081810360008301526109168161078d565b9050919050565b60006020820190508181036000830152610936816107cd565b9050919050565b600060208201905081810360008301526109568161080d565b9050919050565b6000604051905081810181811067ffffffffffffffff8211171561098457610983610b62565b5b8060405250919050565b600067ffffffffffffffff8211156109a9576109a8610b62565b5b601f19601f8301169050602081019050919050565b600081519050919050565b600082825260208201905092915050565b60006109e582610a62565b91506109f083610a62565b9250827fffffffffffffffffffffffffffffffffffffffffffffffffffffffffffffffff03821115610a2557610a24610b04565b5b828201905092915050565b6000610a3b82610a42565b9050919050565b600073ffffffffffffffffffffffffffffffffffffffff82169050919050565b6000819050919050565b6000610a7782610a7e565b9050919050565b6000610a8982610a42565b9050919050565b82818337600083830152505050565b60005b83811015610abd578082015181840152602081019050610aa2565b83811115610acc576000848401525b50505050565b60006002820490506001821680610aea57607f821691505b60208210811415610afe57610afd610b33565b5b50919050565b7f4e487b7100000000000000000000000000000000000000000000000000000000600052601160045260246000fd5b7f4e487b7100000000000000000000000000000000000000000000000000000000600052602260045260246000fd5b7f4e487b7100000000000000000000000000000000000000000000000000000000600052604160045260246000fd5b6000601f19601f8301169050919050565b610bab81610a30565b8114610bb657600080fd5b5056fea26469706673582212207e59bcfe1d9f339e61e0fd97094234abbbdff15490d879bea4d6465453da0ab564736f6c63430008000033",
  "linkReferences": {},
  "deployedLinkReferences": {}
}